{
  "contractName": "ZombieFactory",
  "abi": [
    {
      "inputs": [],
      "stateMutability": "nonpayable",
      "type": "constructor"
    },
    {
      "anonymous": false,
      "inputs": [
        {
          "indexed": true,
          "internalType": "address",
          "name": "owner",
          "type": "address"
        },
        {
          "indexed": true,
          "internalType": "address",
          "name": "approved",
          "type": "address"
        },
        {
          "indexed": true,
          "internalType": "uint256",
          "name": "tokenId",
          "type": "uint256"
        }
      ],
      "name": "Approval",
      "type": "event"
    },
    {
      "anonymous": false,
      "inputs": [
        {
          "indexed": true,
          "internalType": "address",
          "name": "owner",
          "type": "address"
        },
        {
          "indexed": true,
          "internalType": "address",
          "name": "operator",
          "type": "address"
        },
        {
          "indexed": false,
          "internalType": "bool",
          "name": "approved",
          "type": "bool"
        }
      ],
      "name": "ApprovalForAll",
      "type": "event"
    },
    {
      "anonymous": false,
      "inputs": [
        {
          "indexed": false,
          "internalType": "uint256",
          "name": "zombieId",
          "type": "uint256"
        },
        {
          "indexed": false,
          "internalType": "string",
          "name": "name",
          "type": "string"
        },
        {
          "indexed": false,
          "internalType": "uint256",
          "name": "dna",
          "type": "uint256"
        }
      ],
      "name": "NewZombie",
      "type": "event"
    },
    {
      "anonymous": false,
      "inputs": [
        {
          "indexed": false,
          "internalType": "address",
          "name": "_seller",
          "type": "address"
        },
        {
          "indexed": false,
          "internalType": "address",
          "name": "_buyer",
          "type": "address"
        },
        {
          "indexed": false,
          "internalType": "uint256",
          "name": "_price",
          "type": "uint256"
        }
      ],
      "name": "NftBought",
      "type": "event"
    },
    {
      "anonymous": false,
      "inputs": [
        {
          "indexed": true,
          "internalType": "address",
          "name": "from",
          "type": "address"
        },
        {
          "indexed": true,
          "internalType": "address",
          "name": "to",
          "type": "address"
        },
        {
          "indexed": true,
          "internalType": "uint256",
          "name": "tokenId",
          "type": "uint256"
        }
      ],
      "name": "Transfer",
      "type": "event"
    },
    {
      "inputs": [
        {
          "internalType": "address",
          "name": "to",
          "type": "address"
        },
        {
          "internalType": "uint256",
          "name": "tokenId",
          "type": "uint256"
        }
      ],
      "name": "approve",
      "outputs": [],
      "stateMutability": "nonpayable",
      "type": "function"
    },
    {
      "inputs": [],
      "name": "balance",
      "outputs": [
        {
          "internalType": "uint256",
          "name": "",
          "type": "uint256"
        }
      ],
      "stateMutability": "view",
      "type": "function",
      "constant": true
    },
    {
      "inputs": [
        {
          "internalType": "address",
          "name": "owner",
          "type": "address"
        }
      ],
      "name": "balanceOf",
      "outputs": [
        {
          "internalType": "uint256",
          "name": "",
          "type": "uint256"
        }
      ],
      "stateMutability": "view",
      "type": "function",
      "constant": true
    },
    {
      "inputs": [],
      "name": "cooldownTime",
      "outputs": [
        {
          "internalType": "uint256",
          "name": "",
          "type": "uint256"
        }
      ],
      "stateMutability": "view",
      "type": "function",
      "constant": true
    },
    {
      "inputs": [],
      "name": "currentIndex",
      "outputs": [
        {
          "internalType": "uint256",
          "name": "",
          "type": "uint256"
        }
      ],
      "stateMutability": "view",
      "type": "function",
      "constant": true
    },
    {
      "inputs": [],
      "name": "dnaDigits",
      "outputs": [
        {
          "internalType": "uint256",
          "name": "",
          "type": "uint256"
        }
      ],
      "stateMutability": "view",
      "type": "function",
      "constant": true
    },
    {
      "inputs": [],
      "name": "dnaModulus",
      "outputs": [
        {
          "internalType": "uint256",
          "name": "",
          "type": "uint256"
        }
      ],
      "stateMutability": "view",
      "type": "function",
      "constant": true
    },
    {
      "inputs": [
        {
          "internalType": "uint256",
          "name": "tokenId",
          "type": "uint256"
        }
      ],
      "name": "getApproved",
      "outputs": [
        {
          "internalType": "address",
          "name": "",
          "type": "address"
        }
      ],
      "stateMutability": "view",
      "type": "function",
      "constant": true
    },
    {
      "inputs": [
        {
          "internalType": "address",
          "name": "owner",
          "type": "address"
        },
        {
          "internalType": "address",
          "name": "operator",
          "type": "address"
        }
      ],
      "name": "isApprovedForAll",
      "outputs": [
        {
          "internalType": "bool",
          "name": "",
          "type": "bool"
        }
      ],
      "stateMutability": "view",
      "type": "function",
      "constant": true
    },
    {
      "inputs": [],
      "name": "name",
      "outputs": [
        {
          "internalType": "string",
          "name": "",
          "type": "string"
        }
      ],
      "stateMutability": "view",
      "type": "function",
      "constant": true
    },
    {
      "inputs": [],
      "name": "owner",
      "outputs": [
        {
          "internalType": "address",
          "name": "",
          "type": "address"
        }
      ],
      "stateMutability": "view",
      "type": "function",
      "constant": true
    },
    {
      "inputs": [
        {
          "internalType": "uint256",
          "name": "tokenId",
          "type": "uint256"
        }
      ],
      "name": "ownerOf",
      "outputs": [
        {
          "internalType": "address",
          "name": "",
          "type": "address"
        }
      ],
      "stateMutability": "view",
      "type": "function",
      "constant": true
    },
    {
      "inputs": [
        {
          "internalType": "address",
          "name": "",
          "type": "address"
        }
      ],
      "name": "ownerZombieCount",
      "outputs": [
        {
          "internalType": "uint256",
          "name": "",
          "type": "uint256"
        }
      ],
      "stateMutability": "view",
      "type": "function",
      "constant": true
    },
    {
      "inputs": [
        {
          "internalType": "address",
          "name": "from",
          "type": "address"
        },
        {
          "internalType": "address",
          "name": "to",
          "type": "address"
        },
        {
          "internalType": "uint256",
          "name": "tokenId",
          "type": "uint256"
        }
      ],
      "name": "safeTransferFrom",
      "outputs": [],
      "stateMutability": "nonpayable",
      "type": "function"
    },
    {
      "inputs": [
        {
          "internalType": "address",
          "name": "from",
          "type": "address"
        },
        {
          "internalType": "address",
          "name": "to",
          "type": "address"
        },
        {
          "internalType": "uint256",
          "name": "tokenId",
          "type": "uint256"
        },
        {
          "internalType": "bytes",
          "name": "_data",
          "type": "bytes"
        }
      ],
      "name": "safeTransferFrom",
      "outputs": [],
      "stateMutability": "nonpayable",
      "type": "function"
    },
    {
      "inputs": [
        {
          "internalType": "address",
          "name": "operator",
          "type": "address"
        },
        {
          "internalType": "bool",
          "name": "approved",
          "type": "bool"
        }
      ],
      "name": "setApprovalForAll",
      "outputs": [],
      "stateMutability": "nonpayable",
      "type": "function"
    },
    {
      "inputs": [
        {
          "internalType": "bytes4",
          "name": "interfaceId",
          "type": "bytes4"
        }
      ],
      "name": "supportsInterface",
      "outputs": [
        {
          "internalType": "bool",
          "name": "",
          "type": "bool"
        }
      ],
      "stateMutability": "view",
      "type": "function",
      "constant": true
    },
    {
      "inputs": [],
      "name": "symbol",
      "outputs": [
        {
          "internalType": "string",
          "name": "",
          "type": "string"
        }
      ],
      "stateMutability": "view",
      "type": "function",
      "constant": true
    },
    {
      "inputs": [
        {
          "internalType": "uint256",
          "name": "",
          "type": "uint256"
        }
      ],
      "name": "tokenIdToPrice",
      "outputs": [
        {
          "internalType": "uint256",
          "name": "",
          "type": "uint256"
        }
      ],
      "stateMutability": "view",
      "type": "function",
      "constant": true
    },
    {
      "inputs": [
        {
          "internalType": "uint256",
          "name": "tokenId",
          "type": "uint256"
        }
      ],
      "name": "tokenURI",
      "outputs": [
        {
          "internalType": "string",
          "name": "",
          "type": "string"
        }
      ],
      "stateMutability": "view",
      "type": "function",
      "constant": true
    },
    {
      "inputs": [
        {
          "internalType": "address",
          "name": "from",
          "type": "address"
        },
        {
          "internalType": "address",
          "name": "to",
          "type": "address"
        },
        {
          "internalType": "uint256",
          "name": "tokenId",
          "type": "uint256"
        }
      ],
      "name": "transferFrom",
      "outputs": [],
      "stateMutability": "nonpayable",
      "type": "function"
    },
    {
      "inputs": [
        {
          "internalType": "uint256",
          "name": "",
          "type": "uint256"
        }
      ],
      "name": "zombieToOwner",
      "outputs": [
        {
          "internalType": "address",
          "name": "",
          "type": "address"
        }
      ],
      "stateMutability": "view",
      "type": "function",
      "constant": true
    },
    {
      "inputs": [
        {
          "internalType": "uint256",
          "name": "",
          "type": "uint256"
        }
      ],
      "name": "zombies",
      "outputs": [
        {
          "internalType": "string",
          "name": "name",
          "type": "string"
        },
        {
          "internalType": "uint256",
          "name": "dna",
          "type": "uint256"
        },
        {
          "internalType": "uint256",
          "name": "index",
          "type": "uint256"
        },
        {
          "internalType": "bytes32",
          "name": "hash",
          "type": "bytes32"
        },
        {
          "internalType": "uint256",
          "name": "createdAt",
          "type": "uint256"
        },
        {
          "internalType": "uint256",
          "name": "updatedAt",
          "type": "uint256"
        },
        {
          "internalType": "address",
          "name": "ownerCreate",
          "type": "address"
        },
        {
          "internalType": "address",
          "name": "owner",
          "type": "address"
        },
        {
          "internalType": "uint256",
          "name": "price",
          "type": "uint256"
        },
        {
          "internalType": "string",
          "name": "typeCoin",
          "type": "string"
        },
        {
          "internalType": "bool",
          "name": "listing",
          "type": "bool"
        }
      ],
      "stateMutability": "view",
      "type": "function",
      "constant": true
    },
    {
      "inputs": [
        {
          "internalType": "uint256",
          "name": "amount",
          "type": "uint256"
        },
        {
          "internalType": "address payable",
          "name": "payee",
          "type": "address"
        }
      ],
      "name": "widthdraw",
      "outputs": [],
      "stateMutability": "nonpayable",
      "type": "function"
    },
    {
      "inputs": [
        {
          "internalType": "uint256",
          "name": "_tokenId",
          "type": "uint256"
        },
        {
          "internalType": "uint256",
          "name": "_price",
          "type": "uint256"
        }
      ],
      "name": "allowBuy",
      "outputs": [],
      "stateMutability": "nonpayable",
      "type": "function"
    },
    {
      "inputs": [
        {
          "internalType": "uint256",
          "name": "_tokenId",
          "type": "uint256"
        }
      ],
      "name": "disallowBuy",
      "outputs": [],
      "stateMutability": "nonpayable",
      "type": "function"
    },
    {
      "inputs": [
        {
          "internalType": "uint256",
          "name": "_tokenId",
          "type": "uint256"
        },
        {
          "internalType": "uint256",
          "name": "_newPrice",
          "type": "uint256"
        },
        {
          "internalType": "string",
          "name": "_newTypeCoin",
          "type": "string"
        }
      ],
      "name": "listing",
      "outputs": [],
      "stateMutability": "nonpayable",
      "type": "function"
    },
    {
      "inputs": [
        {
          "internalType": "uint256",
          "name": "_tokenId",
          "type": "uint256"
        }
      ],
      "name": "unListing",
      "outputs": [],
      "stateMutability": "nonpayable",
      "type": "function"
    },
    {
      "inputs": [
        {
          "internalType": "uint256",
          "name": "_tokenId",
          "type": "uint256"
        }
      ],
      "name": "buy",
      "outputs": [],
      "stateMutability": "payable",
      "type": "function",
      "payable": true
    },
    {
      "inputs": [],
      "name": "getAllNFTListing",
      "outputs": [
        {
          "components": [
            {
              "internalType": "string",
              "name": "name",
              "type": "string"
            },
            {
              "internalType": "uint256",
              "name": "dna",
              "type": "uint256"
            },
            {
              "internalType": "uint256",
              "name": "index",
              "type": "uint256"
            },
            {
              "internalType": "bytes32",
              "name": "hash",
              "type": "bytes32"
            },
            {
              "internalType": "uint256",
              "name": "createdAt",
              "type": "uint256"
            },
            {
              "internalType": "uint256",
              "name": "updatedAt",
              "type": "uint256"
            },
            {
              "internalType": "address",
              "name": "ownerCreate",
              "type": "address"
            },
            {
              "internalType": "address",
              "name": "owner",
              "type": "address"
            },
            {
              "internalType": "uint256",
              "name": "price",
              "type": "uint256"
            },
            {
              "internalType": "string",
              "name": "typeCoin",
              "type": "string"
            },
            {
              "internalType": "bool",
              "name": "listing",
              "type": "bool"
            }
          ],
          "internalType": "struct ZombieFactory.Zombie[]",
          "name": "",
          "type": "tuple[]"
        }
      ],
      "stateMutability": "view",
      "type": "function",
      "constant": true
    },
    {
      "inputs": [
        {
          "internalType": "string",
          "name": "_str",
          "type": "string"
        }
      ],
      "name": "_generateRandomDna",
      "outputs": [
        {
          "internalType": "uint256",
          "name": "",
          "type": "uint256"
        }
      ],
      "stateMutability": "view",
      "type": "function",
      "constant": true
    },
    {
      "inputs": [
        {
          "internalType": "string",
          "name": "_name",
          "type": "string"
        }
      ],
      "name": "createRandomZombie",
      "outputs": [],
      "stateMutability": "payable",
      "type": "function",
      "payable": true
    },
    {
      "inputs": [
        {
          "internalType": "string",
          "name": "_name",
          "type": "string"
        },
        {
          "internalType": "uint256",
          "name": "_dna",
          "type": "uint256"
        }
      ],
      "name": "createZombieByCoin",
      "outputs": [],
      "stateMutability": "payable",
      "type": "function",
      "payable": true
    },
    {
      "inputs": [
        {
          "internalType": "address",
          "name": "_owner",
          "type": "address"
        }
      ],
      "name": "getZombiesByOwner",
      "outputs": [
        {
          "components": [
            {
              "internalType": "string",
              "name": "name",
              "type": "string"
            },
            {
              "internalType": "uint256",
              "name": "dna",
              "type": "uint256"
            },
            {
              "internalType": "uint256",
              "name": "index",
              "type": "uint256"
            },
            {
              "internalType": "bytes32",
              "name": "hash",
              "type": "bytes32"
            },
            {
              "internalType": "uint256",
              "name": "createdAt",
              "type": "uint256"
            },
            {
              "internalType": "uint256",
              "name": "updatedAt",
              "type": "uint256"
            },
            {
              "internalType": "address",
              "name": "ownerCreate",
              "type": "address"
            },
            {
              "internalType": "address",
              "name": "owner",
              "type": "address"
            },
            {
              "internalType": "uint256",
              "name": "price",
              "type": "uint256"
            },
            {
              "internalType": "string",
              "name": "typeCoin",
              "type": "string"
            },
            {
              "internalType": "bool",
              "name": "listing",
              "type": "bool"
            }
          ],
          "internalType": "struct ZombieFactory.Zombie[]",
          "name": "",
          "type": "tuple[]"
        }
      ],
      "stateMutability": "view",
      "type": "function",
      "constant": true
    },
    {
      "inputs": [
        {
          "internalType": "uint256",
          "name": "_index",
          "type": "uint256"
        }
      ],
      "name": "getZombieById",
      "outputs": [
        {
          "components": [
            {
              "internalType": "string",
              "name": "name",
              "type": "string"
            },
            {
              "internalType": "uint256",
              "name": "dna",
              "type": "uint256"
            },
            {
              "internalType": "uint256",
              "name": "index",
              "type": "uint256"
            },
            {
              "internalType": "bytes32",
              "name": "hash",
              "type": "bytes32"
            },
            {
              "internalType": "uint256",
              "name": "createdAt",
              "type": "uint256"
            },
            {
              "internalType": "uint256",
              "name": "updatedAt",
              "type": "uint256"
            },
            {
              "internalType": "address",
              "name": "ownerCreate",
              "type": "address"
            },
            {
              "internalType": "address",
              "name": "owner",
              "type": "address"
            },
            {
              "internalType": "uint256",
              "name": "price",
              "type": "uint256"
            },
            {
              "internalType": "string",
              "name": "typeCoin",
              "type": "string"
            },
            {
              "internalType": "bool",
              "name": "listing",
              "type": "bool"
            }
          ],
          "internalType": "struct ZombieFactory.Zombie",
          "name": "",
          "type": "tuple"
        }
      ],
      "stateMutability": "view",
      "type": "function",
      "constant": true
    }
  ],
  "bytecode": "0x60806040526010600c55600c54600a6200001a919062000224565b600d5562015180600e553480156200003157600080fd5b506040518060400160405280600881526020017f53746563684e46540000000000000000000000000000000000000000000000008152506040518060400160405280600581526020017f53544543480000000000000000000000000000000000000000000000000000008152508160009080519060200190620000b692919062000119565b508060019080519060200190620000cf92919062000119565b50505033600a60006101000a81548173ffffffffffffffffffffffffffffffffffffffff021916908373ffffffffffffffffffffffffffffffffffffffff1602179055506200040c565b82805462000127906200036b565b90600052602060002090601f0160209004810192826200014b576000855562000197565b82601f106200016657805160ff191683800117855562000197565b8280016001018555821562000197579182015b828111156200019657825182559160200191906001019062000179565b5b509050620001a69190620001aa565b5090565b5b80821115620001c5576000816000905550600101620001ab565b5090565b6000808291508390505b60018511156200021b57808604811115620001f357620001f2620003a1565b5b6001851615620002035780820291505b80810290506200021385620003ff565b9450620001d3565b94509492505050565b6000620002318262000361565b91506200023e8362000361565b92506200026d7fffffffffffffffffffffffffffffffffffffffffffffffffffffffffffffffff848462000275565b905092915050565b6000826200028757600190506200035a565b816200029757600090506200035a565b8160018114620002b05760028114620002bb57620002f1565b60019150506200035a565b60ff841115620002d057620002cf620003a1565b5b8360020a915084821115620002ea57620002e9620003a1565b5b506200035a565b5060208310610133831016604e8410600b84101617156200032b5782820a905083811115620003255762000324620003a1565b5b6200035a565b6200033a8484846001620001c9565b92509050818404811115620003545762000353620003a1565b5b81810290505b9392505050565b6000819050919050565b600060028204905060018216806200038457607f821691505b602082108114156200039b576200039a620003d0565b5b50919050565b7f4e487b7100000000000000000000000000000000000000000000000000000000600052601160045260246000fd5b7f4e487b7100000000000000000000000000000000000000000000000000000000600052602260045260246000fd5b60008160011c9050919050565b6157ae806200041c6000396000f3fe6080604052600436106102045760003560e01c80637bff0a0111610118578063b88d4fde116100a0578063d96a094a1161006f578063d96a094a1461079f578063daba0711146107bb578063df57a6ec146107e6578063e985e9c514610823578063f4812eb91461086057610204565b8063b88d4fde146106e7578063bbb5e8d314610710578063c87b56dd14610739578063d49913121461077657610204565b80638da5cb5b116100e75780638da5cb5b1461061257806395d89b411461063d578063a22cb46514610668578063b319c6b714610691578063b69ef8a8146106bc57610204565b80637bff0a0114610579578063828e525114610595578063840d0da5146105be57806385e89183146105e957610204565b80633b9723b51161019b5780636352211e1161016a5780636352211e1461048f578063692c6627146104cc5780636a2a4544146104f757806370a08231146105205780637895f5611461055d57610204565b80633b9723b5146103af57806342842e0e146103ec5780634412e10414610415578063528b7b8f1461045257610204565b8063095ea7b3116101d7578063095ea7b3146102eb5780632052465e1461031457806323b872dd1461035b57806326987b601461038457610204565b806301afd7e11461020957806301ffc9a71461024657806306fdde0314610283578063081812fc146102ae575b600080fd5b34801561021557600080fd5b50610230600480360381019061022b9190613e3f565b61089d565b60405161023d9190614d58565b60405180910390f35b34801561025257600080fd5b5061026d60048036038101906102689190613fe6565b6108b5565b60405161027a91906149a0565b60405180910390f35b34801561028f57600080fd5b50610298610997565b6040516102a591906149bb565b60405180910390f35b3480156102ba57600080fd5b506102d560048036038101906102d091906140cd565b610a29565b6040516102e291906148e0565b60405180910390f35b3480156102f757600080fd5b50610312600480360381019061030d9190613faa565b610aae565b005b34801561032057600080fd5b5061033b600480360381019061033691906140cd565b610bc6565b6040516103529b9a999897969594939291906149dd565b60405180910390f35b34801561036757600080fd5b50610382600480360381019061037d9190613ea4565b610d8d565b005b34801561039057600080fd5b50610399610ded565b6040516103a69190614d58565b60405180910390f35b3480156103bb57600080fd5b506103d660048036038101906103d191906140cd565b610df3565b6040516103e39190614d36565b60405180910390f35b3480156103f857600080fd5b50610413600480360381019061040e9190613ea4565b611083565b005b34801561042157600080fd5b5061043c60048036038101906104379190613e3f565b6110a3565b604051610449919061497e565b60405180910390f35b34801561045e57600080fd5b50610479600480360381019061047491906140cd565b6114c6565b60405161048691906148e0565b60405180910390f35b34801561049b57600080fd5b506104b660048036038101906104b191906140cd565b6114f9565b6040516104c391906148e0565b60405180910390f35b3480156104d857600080fd5b506104e16115ab565b6040516104ee9190614d58565b60405180910390f35b34801561050357600080fd5b5061051e600480360381019061051991906140cd565b6115b1565b005b34801561052c57600080fd5b5061054760048036038101906105429190613e3f565b611671565b6040516105549190614d58565b60405180910390f35b61057760048036038101906105729190614079565b611729565b005b610593600480360381019061058e9190614038565b611b5c565b005b3480156105a157600080fd5b506105bc60048036038101906105b791906140f6565b611fb6565b005b3480156105ca57600080fd5b506105d36120ef565b6040516105e0919061497e565b60405180910390f35b3480156105f557600080fd5b50610610600480360381019061060b919061416e565b61245b565b005b34801561061e57600080fd5b506106276126a2565b60405161063491906148e0565b60405180910390f35b34801561064957600080fd5b506106526126c8565b60405161065f91906149bb565b60405180910390f35b34801561067457600080fd5b5061068f600480360381019061068a9190613f6e565b61275a565b005b34801561069d57600080fd5b506106a6612770565b6040516106b39190614d58565b60405180910390f35b3480156106c857600080fd5b506106d1612776565b6040516106de9190614d58565b60405180910390f35b3480156106f357600080fd5b5061070e60048036038101906107099190613ef3565b61277c565b005b34801561071c57600080fd5b5061073760048036038101906107329190614132565b6127de565b005b34801561074557600080fd5b50610760600480360381019061075b91906140cd565b6128b3565b60405161076d91906149bb565b60405180910390f35b34801561078257600080fd5b5061079d600480360381019061079891906140cd565b61295a565b005b6107b960048036038101906107b491906140cd565b612a3d565b005b3480156107c757600080fd5b506107d0612e4e565b6040516107dd9190614d58565b60405180910390f35b3480156107f257600080fd5b5061080d60048036038101906108089190614038565b612e54565b60405161081a9190614d58565b60405180910390f35b34801561082f57600080fd5b5061084a60048036038101906108459190613e68565b612e9d565b60405161085791906149a0565b60405180910390f35b34801561086c57600080fd5b50610887600480360381019061088291906140cd565b612f31565b6040516108949190614d58565b60405180910390f35b60086020528060005260406000206000915090505481565b60007f80ac58cd000000000000000000000000000000000000000000000000000000007bffffffffffffffffffffffffffffffffffffffffffffffffffffffff1916827bffffffffffffffffffffffffffffffffffffffffffffffffffffffff1916148061098057507f5b5e139f000000000000000000000000000000000000000000000000000000007bffffffffffffffffffffffffffffffffffffffffffffffffffffffff1916827bffffffffffffffffffffffffffffffffffffffffffffffffffffffff1916145b80610990575061098f82612f49565b5b9050919050565b6060600080546109a690615052565b80601f01602080910402602001604051908101604052809291908181526020018280546109d290615052565b8015610a1f5780601f106109f457610100808354040283529160200191610a1f565b820191906000526020600020905b815481529060010190602001808311610a0257829003601f168201915b5050505050905090565b6000610a3482612fb3565b610a73576040517f08c379a0000000000000000000000000000000000000000000000000000000008152600401610a6a90614c16565b60405180910390fd5b6004600083815260200190815260200160002060009054906101000a900473ffffffffffffffffffffffffffffffffffffffff169050919050565b6000610ab9826114f9565b90508073ffffffffffffffffffffffffffffffffffffffff168373ffffffffffffffffffffffffffffffffffffffff161415610b2a576040517f08c379a0000000000000000000000000000000000000000000000000000000008152600401610b2190614cd6565b60405180910390fd5b8073ffffffffffffffffffffffffffffffffffffffff16610b4961301f565b73ffffffffffffffffffffffffffffffffffffffff161480610b785750610b7781610b7261301f565b612e9d565b5b610bb7576040517f08c379a0000000000000000000000000000000000000000000000000000000008152600401610bae90614b96565b60405180910390fd5b610bc18383613027565b505050565b60108181548110610bd657600080fd5b90600052602060002090600b0201600091509050806000018054610bf990615052565b80601f0160208091040260200160405190810160405280929190818152602001828054610c2590615052565b8015610c725780601f10610c4757610100808354040283529160200191610c72565b820191906000526020600020905b815481529060010190602001808311610c5557829003601f168201915b5050505050908060010154908060020154908060030154908060040154908060050154908060060160009054906101000a900473ffffffffffffffffffffffffffffffffffffffff16908060070160009054906101000a900473ffffffffffffffffffffffffffffffffffffffff1690806008015490806009018054610cf790615052565b80601f0160208091040260200160405190810160405280929190818152602001828054610d2390615052565b8015610d705780601f10610d4557610100808354040283529160200191610d70565b820191906000526020600020905b815481529060010190602001808311610d5357829003601f168201915b50505050509080600a0160009054906101000a900460ff1690508b565b610d9e610d9861301f565b826130e0565b610ddd576040517f08c379a0000000000000000000000000000000000000000000000000000000008152600401610dd490614d16565b60405180910390fd5b610de88383836131be565b505050565b600f5481565b610dfb613bc3565b600060108381548110610e37577f4e487b7100000000000000000000000000000000000000000000000000000000600052603260045260246000fd5b90600052602060002090600b020160405180610160016040529081600082018054610e6190615052565b80601f0160208091040260200160405190810160405280929190818152602001828054610e8d90615052565b8015610eda5780601f10610eaf57610100808354040283529160200191610eda565b820191906000526020600020905b815481529060010190602001808311610ebd57829003601f168201915b5050505050815260200160018201548152602001600282015481526020016003820154815260200160048201548152602001600582015481526020016006820160009054906101000a900473ffffffffffffffffffffffffffffffffffffffff1673ffffffffffffffffffffffffffffffffffffffff1673ffffffffffffffffffffffffffffffffffffffff1681526020016007820160009054906101000a900473ffffffffffffffffffffffffffffffffffffffff1673ffffffffffffffffffffffffffffffffffffffff1673ffffffffffffffffffffffffffffffffffffffff16815260200160088201548152602001600982018054610fdb90615052565b80601f016020809104026020016040519081016040528092919081815260200182805461100790615052565b80156110545780601f1061102957610100808354040283529160200191611054565b820191906000526020600020905b81548152906001019060200180831161103757829003601f168201915b50505050508152602001600a820160009054906101000a900460ff161515151581525050905080915050919050565b61109e8383836040518060200160405280600081525061277c565b505050565b60606000600860008473ffffffffffffffffffffffffffffffffffffffff1673ffffffffffffffffffffffffffffffffffffffff1681526020019081526020016000205467ffffffffffffffff811115611126577f4e487b7100000000000000000000000000000000000000000000000000000000600052604160045260246000fd5b60405190808252806020026020018201604052801561115f57816020015b61114c613bc3565b8152602001906001900390816111445790505b5090506000805b6010805490508110156114bb578473ffffffffffffffffffffffffffffffffffffffff166007600083815260200190815260200160002060009054906101000a900473ffffffffffffffffffffffffffffffffffffffff1673ffffffffffffffffffffffffffffffffffffffff1614156114a85760108181548110611214577f4e487b7100000000000000000000000000000000000000000000000000000000600052603260045260246000fd5b90600052602060002090600b02016040518061016001604052908160008201805461123e90615052565b80601f016020809104026020016040519081016040528092919081815260200182805461126a90615052565b80156112b75780601f1061128c576101008083540402835291602001916112b7565b820191906000526020600020905b81548152906001019060200180831161129a57829003601f168201915b5050505050815260200160018201548152602001600282015481526020016003820154815260200160048201548152602001600582015481526020016006820160009054906101000a900473ffffffffffffffffffffffffffffffffffffffff1673ffffffffffffffffffffffffffffffffffffffff1673ffffffffffffffffffffffffffffffffffffffff1681526020016007820160009054906101000a900473ffffffffffffffffffffffffffffffffffffffff1673ffffffffffffffffffffffffffffffffffffffff1673ffffffffffffffffffffffffffffffffffffffff168152602001600882015481526020016009820180546113b890615052565b80601f01602080910402602001604051908101604052809291908181526020018280546113e490615052565b80156114315780601f1061140657610100808354040283529160200191611431565b820191906000526020600020905b81548152906001019060200180831161141457829003601f168201915b50505050508152602001600a820160009054906101000a900460ff16151515158152505083838151811061148e577f4e487b7100000000000000000000000000000000000000000000000000000000600052603260045260246000fd5b602002602001018190525081806114a4906150b5565b9250505b80806114b3906150b5565b915050611166565b508192505050919050565b60076020528060005260406000206000915054906101000a900473ffffffffffffffffffffffffffffffffffffffff1681565b6000806002600084815260200190815260200160002060009054906101000a900473ffffffffffffffffffffffffffffffffffffffff169050600073ffffffffffffffffffffffffffffffffffffffff168173ffffffffffffffffffffffffffffffffffffffff1614156115a2576040517f08c379a000000000000000000000000000000000000000000000000000000000815260040161159990614bd6565b60405180910390fd5b80915050919050565b600c5481565b6115ba8161295a565b42601082815481106115f5577f4e487b7100000000000000000000000000000000000000000000000000000000600052603260045260246000fd5b90600052602060002090600b020160050181905550600060108281548110611646577f4e487b7100000000000000000000000000000000000000000000000000000000600052603260045260246000fd5b90600052602060002090600b0201600a0160006101000a81548160ff02191690831515021790555050565b60008073ffffffffffffffffffffffffffffffffffffffff168273ffffffffffffffffffffffffffffffffffffffff1614156116e2576040517f08c379a00000000000000000000000000000000000000000000000000000000081526004016116d990614bb6565b60405180910390fd5b600360008373ffffffffffffffffffffffffffffffffffffffff1673ffffffffffffffffffffffffffffffffffffffff168152602001908152602001600020549050919050565b67016345785d8a00003414611773576040517f08c379a000000000000000000000000000000000000000000000000000000000815260040161176a90614ad6565b60405180910390fd5b600a60009054906101000a900473ffffffffffffffffffffffffffffffffffffffff1673ffffffffffffffffffffffffffffffffffffffff166108fc349081150290604051600060405180830381858888f193505050501580156117db573d6000803e3d6000fd5b506010604051806101600160405280848152602001838152602001600f54815260200184600f546040516020016118139291906148b8565b6040516020818303038152906040528051906020012081526020014281526020014281526020013373ffffffffffffffffffffffffffffffffffffffff1681526020013373ffffffffffffffffffffffffffffffffffffffff168152602001600081526020016040518060400160405280600381526020017f455448000000000000000000000000000000000000000000000000000000000081525081526020016000151581525090806001815401808255809150506001900390600052602060002090600b02016000909190919091506000820151816000019080519060200190611900929190613c4e565b506020820151816001015560408201518160020155606082015181600301556080820151816004015560a0820151816005015560c08201518160060160006101000a81548173ffffffffffffffffffffffffffffffffffffffff021916908373ffffffffffffffffffffffffffffffffffffffff16021790555060e08201518160070160006101000a81548173ffffffffffffffffffffffffffffffffffffffff021916908373ffffffffffffffffffffffffffffffffffffffff16021790555061010082015181600801556101208201518160090190805190602001906119e9929190613c4e565b5061014082015181600a0160006101000a81548160ff02191690831515021790555050503360076000600f54815260200190815260200160002060006101000a81548173ffffffffffffffffffffffffffffffffffffffff021916908373ffffffffffffffffffffffffffffffffffffffff160217905550611a6d33600f5461341a565b611ac06001600860003373ffffffffffffffffffffffffffffffffffffffff1673ffffffffffffffffffffffffffffffffffffffff168152602001908152602001600020546135e890919063ffffffff16565b600860003373ffffffffffffffffffffffffffffffffffffffff1673ffffffffffffffffffffffffffffffffffffffff16815260200190815260200160002081905550600f6000815480929190611b16906150b5565b91905055507f88f026aacbbecc90c18411df4b1185fd8d9be2470f1962f192bf84a27d0704b7600f548383604051611b5093929190614d73565b60405180910390a15050565b67016345785d8a00003414611ba6576040517f08c379a0000000000000000000000000000000000000000000000000000000008152600401611b9d90614ad6565b60405180910390fd5b6000611bb182612e54565b9050606481611bc09190615108565b81611bcb9190614f4c565b9050600a60009054906101000a900473ffffffffffffffffffffffffffffffffffffffff1673ffffffffffffffffffffffffffffffffffffffff166108fc349081150290604051600060405180830381858888f19350505050158015611c35573d6000803e3d6000fd5b506010604051806101600160405280848152602001838152602001600f54815260200184600f54604051602001611c6d9291906148b8565b6040516020818303038152906040528051906020012081526020014281526020014281526020013373ffffffffffffffffffffffffffffffffffffffff1681526020013373ffffffffffffffffffffffffffffffffffffffff168152602001600081526020016040518060400160405280600381526020017f455448000000000000000000000000000000000000000000000000000000000081525081526020016000151581525090806001815401808255809150506001900390600052602060002090600b02016000909190919091506000820151816000019080519060200190611d5a929190613c4e565b506020820151816001015560408201518160020155606082015181600301556080820151816004015560a0820151816005015560c08201518160060160006101000a81548173ffffffffffffffffffffffffffffffffffffffff021916908373ffffffffffffffffffffffffffffffffffffffff16021790555060e08201518160070160006101000a81548173ffffffffffffffffffffffffffffffffffffffff021916908373ffffffffffffffffffffffffffffffffffffffff1602179055506101008201518160080155610120820151816009019080519060200190611e43929190613c4e565b5061014082015181600a0160006101000a81548160ff02191690831515021790555050503360076000600f54815260200190815260200160002060006101000a81548173ffffffffffffffffffffffffffffffffffffffff021916908373ffffffffffffffffffffffffffffffffffffffff160217905550611ec733600f5461341a565b611f1a6001600860003373ffffffffffffffffffffffffffffffffffffffff1673ffffffffffffffffffffffffffffffffffffffff168152602001908152602001600020546135e890919063ffffffff16565b600860003373ffffffffffffffffffffffffffffffffffffffff1673ffffffffffffffffffffffffffffffffffffffff16815260200190815260200160002081905550600f6000815480929190611f70906150b5565b91905055507f88f026aacbbecc90c18411df4b1185fd8d9be2470f1962f192bf84a27d0704b7600f548383604051611faa93929190614d73565b60405180910390a15050565b600a60009054906101000a900473ffffffffffffffffffffffffffffffffffffffff1673ffffffffffffffffffffffffffffffffffffffff163373ffffffffffffffffffffffffffffffffffffffff1614612046576040517f08c379a000000000000000000000000000000000000000000000000000000000815260040161203d90614a96565b60405180910390fd5b600b5482111561208b576040517f08c379a000000000000000000000000000000000000000000000000000000000815260040161208290614c76565b60405180910390fd5b8073ffffffffffffffffffffffffffffffffffffffff166108fc839081150290604051600060405180830381858888f193505050501580156120d1573d6000803e3d6000fd5b5081600b60008282546120e49190614f4c565b925050819055505050565b60606000600f5467ffffffffffffffff811115612135577f4e487b7100000000000000000000000000000000000000000000000000000000600052604160045260246000fd5b60405190808252806020026020018201604052801561216e57816020015b61215b613bc3565b8152602001906001900390816121535790505b50905060005b60108054905081101561245357601081815481106121bb577f4e487b7100000000000000000000000000000000000000000000000000000000600052603260045260246000fd5b90600052602060002090600b0201604051806101600160405290816000820180546121e590615052565b80601f016020809104026020016040519081016040528092919081815260200182805461221190615052565b801561225e5780601f106122335761010080835404028352916020019161225e565b820191906000526020600020905b81548152906001019060200180831161224157829003601f168201915b5050505050815260200160018201548152602001600282015481526020016003820154815260200160048201548152602001600582015481526020016006820160009054906101000a900473ffffffffffffffffffffffffffffffffffffffff1673ffffffffffffffffffffffffffffffffffffffff1673ffffffffffffffffffffffffffffffffffffffff1681526020016007820160009054906101000a900473ffffffffffffffffffffffffffffffffffffffff1673ffffffffffffffffffffffffffffffffffffffff1673ffffffffffffffffffffffffffffffffffffffff1681526020016008820154815260200160098201805461235f90615052565b80601f016020809104026020016040519081016040528092919081815260200182805461238b90615052565b80156123d85780601f106123ad576101008083540402835291602001916123d8565b820191906000526020600020905b8154815290600101906020018083116123bb57829003601f168201915b50505050508152602001600a820160009054906101000a900460ff161515151581525050828281518110612435577f4e487b7100000000000000000000000000000000000000000000000000000000600052603260045260246000fd5b6020026020010181905250808061244b906150b5565b915050612174565b508091505090565b3373ffffffffffffffffffffffffffffffffffffffff166007600085815260200190815260200160002060009054906101000a900473ffffffffffffffffffffffffffffffffffffffff1673ffffffffffffffffffffffffffffffffffffffff16148061252657503373ffffffffffffffffffffffffffffffffffffffff166009600085815260200190815260200160002060009054906101000a900473ffffffffffffffffffffffffffffffffffffffff1673ffffffffffffffffffffffffffffffffffffffff16145b61252f57600080fd5b61253983836127de565b4260108481548110612574577f4e487b7100000000000000000000000000000000000000000000000000000000600052603260045260246000fd5b90600052602060002090600b02016005018190555081601084815481106125c4577f4e487b7100000000000000000000000000000000000000000000000000000000600052603260045260246000fd5b90600052602060002090600b0201600801819055508060108481548110612614577f4e487b7100000000000000000000000000000000000000000000000000000000600052603260045260246000fd5b90600052602060002090600b02016009019080519060200190612638929190613c4e565b50600160108481548110612675577f4e487b7100000000000000000000000000000000000000000000000000000000600052603260045260246000fd5b90600052602060002090600b0201600a0160006101000a81548160ff021916908315150217905550505050565b600a60009054906101000a900473ffffffffffffffffffffffffffffffffffffffff1681565b6060600180546126d790615052565b80601f016020809104026020016040519081016040528092919081815260200182805461270390615052565b80156127505780601f1061272557610100808354040283529160200191612750565b820191906000526020600020905b81548152906001019060200180831161273357829003601f168201915b5050505050905090565b61276c61276561301f565b838361363a565b5050565b600e5481565b600b5481565b61278d61278761301f565b836130e0565b6127cc576040517f08c379a00000000000000000000000000000000000000000000000000000000081526004016127c390614d16565b60405180910390fd5b6127d8848484846137a7565b50505050565b6127e7826114f9565b73ffffffffffffffffffffffffffffffffffffffff163373ffffffffffffffffffffffffffffffffffffffff1614612854576040517f08c379a000000000000000000000000000000000000000000000000000000000815260040161284b90614cf6565b60405180910390fd5b60008111612897576040517f08c379a000000000000000000000000000000000000000000000000000000000815260040161288e90614c96565b60405180910390fd5b8060066000848152602001908152602001600020819055505050565b60606128be82612fb3565b6128fd576040517f08c379a00000000000000000000000000000000000000000000000000000000081526004016128f490614cb6565b60405180910390fd5b6000612907613803565b905060008151116129275760405180602001604052806000815250612952565b806129318461381a565b604051602001612942929190614894565b6040516020818303038152906040525b915050919050565b612963816114f9565b73ffffffffffffffffffffffffffffffffffffffff163373ffffffffffffffffffffffffffffffffffffffff16146129d0576040517f08c379a00000000000000000000000000000000000000000000000000000000081526004016129c790614cf6565b60405180910390fd5b60006006600083815260200190815260200160002081905550600060108281548110612a25577f4e487b7100000000000000000000000000000000000000000000000000000000600052603260045260246000fd5b90600052602060002090600b02016008018190555050565b60006006600083815260200190815260200160002054905060008111612a98576040517f08c379a0000000000000000000000000000000000000000000000000000000008152600401612a8f90614af6565b60405180910390fd5b803414612ada576040517f08c379a0000000000000000000000000000000000000000000000000000000008152600401612ad190614c36565b60405180910390fd5b6000612ae5836114f9565b9050612af28133856131be565b4260108481548110612b2d577f4e487b7100000000000000000000000000000000000000000000000000000000600052603260045260246000fd5b90600052602060002090600b0201600501819055503360108481548110612b7d577f4e487b7100000000000000000000000000000000000000000000000000000000600052603260045260246000fd5b90600052602060002090600b020160070160006101000a81548173ffffffffffffffffffffffffffffffffffffffff021916908373ffffffffffffffffffffffffffffffffffffffff160217905550600060108481548110612c08577f4e487b7100000000000000000000000000000000000000000000000000000000600052603260045260246000fd5b90600052602060002090600b0201600a0160006101000a81548160ff021916908315150217905550612c836001600860003373ffffffffffffffffffffffffffffffffffffffff1673ffffffffffffffffffffffffffffffffffffffff168152602001908152602001600020546135e890919063ffffffff16565b600860003373ffffffffffffffffffffffffffffffffffffffff1673ffffffffffffffffffffffffffffffffffffffff16815260200190815260200160002081905550612d196001600860008473ffffffffffffffffffffffffffffffffffffffff1673ffffffffffffffffffffffffffffffffffffffff168152602001908152602001600020546139c790919063ffffffff16565b600860008373ffffffffffffffffffffffffffffffffffffffff1673ffffffffffffffffffffffffffffffffffffffff16815260200190815260200160002081905550336007600085815260200190815260200160002060006101000a81548173ffffffffffffffffffffffffffffffffffffffff021916908373ffffffffffffffffffffffffffffffffffffffff160217905550600060066000858152602001908152602001600020819055508073ffffffffffffffffffffffffffffffffffffffff166108fc349081150290604051600060405180830381858888f19350505050158015612e0d573d6000803e3d6000fd5b507f608f6ac9327c2bf4d3c77adf447d2c448ba7b0971e0aaa9aa03f7ac29d874a44813334604051612e41939291906148fb565b60405180910390a1505050565b600d5481565b60008082600f54604051602001612e6c9291906148b8565b6040516020818303038152906040528051906020012060001c9050600d5481612e959190615108565b915050919050565b6000600560008473ffffffffffffffffffffffffffffffffffffffff1673ffffffffffffffffffffffffffffffffffffffff16815260200190815260200160002060008373ffffffffffffffffffffffffffffffffffffffff1673ffffffffffffffffffffffffffffffffffffffff16815260200190815260200160002060009054906101000a900460ff16905092915050565b60066020528060005260406000206000915090505481565b60007f01ffc9a7000000000000000000000000000000000000000000000000000000007bffffffffffffffffffffffffffffffffffffffffffffffffffffffff1916827bffffffffffffffffffffffffffffffffffffffffffffffffffffffff1916149050919050565b60008073ffffffffffffffffffffffffffffffffffffffff166002600084815260200190815260200160002060009054906101000a900473ffffffffffffffffffffffffffffffffffffffff1673ffffffffffffffffffffffffffffffffffffffff1614159050919050565b600033905090565b816004600083815260200190815260200160002060006101000a81548173ffffffffffffffffffffffffffffffffffffffff021916908373ffffffffffffffffffffffffffffffffffffffff160217905550808273ffffffffffffffffffffffffffffffffffffffff1661309a836114f9565b73ffffffffffffffffffffffffffffffffffffffff167f8c5be1e5ebec7d5bd14f71427d1e84f3dd0314c0f7b2291e5b200ac8c7c3b92560405160405180910390a45050565b60006130eb82612fb3565b61312a576040517f08c379a000000000000000000000000000000000000000000000000000000000815260040161312190614b76565b60405180910390fd5b6000613135836114f9565b90508073ffffffffffffffffffffffffffffffffffffffff168473ffffffffffffffffffffffffffffffffffffffff1614806131a457508373ffffffffffffffffffffffffffffffffffffffff1661318c84610a29565b73ffffffffffffffffffffffffffffffffffffffff16145b806131b557506131b48185612e9d565b5b91505092915050565b8273ffffffffffffffffffffffffffffffffffffffff166131de826114f9565b73ffffffffffffffffffffffffffffffffffffffff1614613234576040517f08c379a000000000000000000000000000000000000000000000000000000000815260040161322b90614c56565b60405180910390fd5b600073ffffffffffffffffffffffffffffffffffffffff168273ffffffffffffffffffffffffffffffffffffffff1614156132a4576040517f08c379a000000000000000000000000000000000000000000000000000000000815260040161329b90614b36565b60405180910390fd5b6132af838383613a14565b6132ba600082613027565b6001600360008573ffffffffffffffffffffffffffffffffffffffff1673ffffffffffffffffffffffffffffffffffffffff168152602001908152602001600020600082825461330a9190614f4c565b925050819055506001600360008473ffffffffffffffffffffffffffffffffffffffff1673ffffffffffffffffffffffffffffffffffffffff16815260200190815260200160002060008282546133619190614ec5565b92505081905550816002600083815260200190815260200160002060006101000a81548173ffffffffffffffffffffffffffffffffffffffff021916908373ffffffffffffffffffffffffffffffffffffffff160217905550808273ffffffffffffffffffffffffffffffffffffffff168473ffffffffffffffffffffffffffffffffffffffff167fddf252ad1be2c89b69c2b068fc378daa952ba7f163c4a11628f55a4df523b3ef60405160405180910390a4505050565b600073ffffffffffffffffffffffffffffffffffffffff168273ffffffffffffffffffffffffffffffffffffffff16141561348a576040517f08c379a000000000000000000000000000000000000000000000000000000000815260040161348190614bf6565b60405180910390fd5b61349381612fb3565b156134d3576040517f08c379a00000000000000000000000000000000000000000000000000000000081526004016134ca90614b16565b60405180910390fd5b6134df60008383613a14565b6001600360008473ffffffffffffffffffffffffffffffffffffffff1673ffffffffffffffffffffffffffffffffffffffff168152602001908152602001600020600082825461352f9190614ec5565b92505081905550816002600083815260200190815260200160002060006101000a81548173ffffffffffffffffffffffffffffffffffffffff021916908373ffffffffffffffffffffffffffffffffffffffff160217905550808273ffffffffffffffffffffffffffffffffffffffff16600073ffffffffffffffffffffffffffffffffffffffff167fddf252ad1be2c89b69c2b068fc378daa952ba7f163c4a11628f55a4df523b3ef60405160405180910390a45050565b60008082846135f79190614ec5565b905083811015613630577f4e487b7100000000000000000000000000000000000000000000000000000000600052600160045260246000fd5b8091505092915050565b8173ffffffffffffffffffffffffffffffffffffffff168373ffffffffffffffffffffffffffffffffffffffff1614156136a9576040517f08c379a00000000000000000000000000000000000000000000000000000000081526004016136a090614b56565b60405180910390fd5b80600560008573ffffffffffffffffffffffffffffffffffffffff1673ffffffffffffffffffffffffffffffffffffffff16815260200190815260200160002060008473ffffffffffffffffffffffffffffffffffffffff1673ffffffffffffffffffffffffffffffffffffffff16815260200190815260200160002060006101000a81548160ff0219169083151502179055508173ffffffffffffffffffffffffffffffffffffffff168373ffffffffffffffffffffffffffffffffffffffff167f17307eab39ab6107e8899845ad3d59bd9653f200f220920489ca2b5937696c318360405161379a91906149a0565b60405180910390a3505050565b6137b28484846131be565b6137be84848484613a19565b6137fd576040517f08c379a00000000000000000000000000000000000000000000000000000000081526004016137f490614ab6565b60405180910390fd5b50505050565b606060405180602001604052806000815250905090565b60606000821415613862576040518060400160405280600181526020017f300000000000000000000000000000000000000000000000000000000000000081525090506139c2565b600082905060005b6000821461389457808061387d906150b5565b915050600a8261388d9190614f1b565b915061386a565b60008167ffffffffffffffff8111156138d6577f4e487b7100000000000000000000000000000000000000000000000000000000600052604160045260246000fd5b6040519080825280601f01601f1916602001820160405280156139085781602001600182028036833780820191505090505b5090505b600085146139bb576001826139219190614f4c565b9150600a856139309190615108565b603061393c9190614ec5565b60f81b818381518110613978577f4e487b7100000000000000000000000000000000000000000000000000000000600052603260045260246000fd5b60200101907effffffffffffffffffffffffffffffffffffffffffffffffffffffffffffff1916908160001a905350600a856139b49190614f1b565b945061390c565b8093505050505b919050565b600082821115613a00577f4e487b7100000000000000000000000000000000000000000000000000000000600052600160045260246000fd5b8183613a0c9190614f4c565b905092915050565b505050565b6000613a3a8473ffffffffffffffffffffffffffffffffffffffff16613bb0565b15613ba3578373ffffffffffffffffffffffffffffffffffffffff1663150b7a02613a6361301f565b8786866040518563ffffffff1660e01b8152600401613a859493929190614932565b602060405180830381600087803b158015613a9f57600080fd5b505af1925050508015613ad057506040513d601f19601f82011682018060405250810190613acd919061400f565b60015b613b53573d8060008114613b00576040519150601f19603f3d011682016040523d82523d6000602084013e613b05565b606091505b50600081511415613b4b576040517f08c379a0000000000000000000000000000000000000000000000000000000008152600401613b4290614ab6565b60405180910390fd5b805181602001fd5b63150b7a0260e01b7bffffffffffffffffffffffffffffffffffffffffffffffffffffffff1916817bffffffffffffffffffffffffffffffffffffffffffffffffffffffff191614915050613ba8565b600190505b949350505050565b600080823b905060008111915050919050565b604051806101600160405280606081526020016000815260200160008152602001600080191681526020016000815260200160008152602001600073ffffffffffffffffffffffffffffffffffffffff168152602001600073ffffffffffffffffffffffffffffffffffffffff16815260200160008152602001606081526020016000151581525090565b828054613c5a90615052565b90600052602060002090601f016020900481019282613c7c5760008555613cc3565b82601f10613c9557805160ff1916838001178555613cc3565b82800160010185558215613cc3579182015b82811115613cc2578251825591602001919060010190613ca7565b5b509050613cd09190613cd4565b5090565b5b80821115613ced576000816000905550600101613cd5565b5090565b6000613d04613cff84614dd6565b614db1565b905082815260208101848484011115613d1c57600080fd5b613d27848285615010565b509392505050565b6000613d42613d3d84614e07565b614db1565b905082815260208101848484011115613d5a57600080fd5b613d65848285615010565b509392505050565b600081359050613d7c81615705565b92915050565b600081359050613d918161571c565b92915050565b600081359050613da681615733565b92915050565b600081359050613dbb8161574a565b92915050565b600081519050613dd08161574a565b92915050565b600082601f830112613de757600080fd5b8135613df7848260208601613cf1565b91505092915050565b600082601f830112613e1157600080fd5b8135613e21848260208601613d2f565b91505092915050565b600081359050613e3981615761565b92915050565b600060208284031215613e5157600080fd5b6000613e5f84828501613d6d565b91505092915050565b60008060408385031215613e7b57600080fd5b6000613e8985828601613d6d565b9250506020613e9a85828601613d6d565b9150509250929050565b600080600060608486031215613eb957600080fd5b6000613ec786828701613d6d565b9350506020613ed886828701613d6d565b9250506040613ee986828701613e2a565b9150509250925092565b60008060008060808587031215613f0957600080fd5b6000613f1787828801613d6d565b9450506020613f2887828801613d6d565b9350506040613f3987828801613e2a565b925050606085013567ffffffffffffffff811115613f5657600080fd5b613f6287828801613dd6565b91505092959194509250565b60008060408385031215613f8157600080fd5b6000613f8f85828601613d6d565b9250506020613fa085828601613d97565b9150509250929050565b60008060408385031215613fbd57600080fd5b6000613fcb85828601613d6d565b9250506020613fdc85828601613e2a565b9150509250929050565b600060208284031215613ff857600080fd5b600061400684828501613dac565b91505092915050565b60006020828403121561402157600080fd5b600061402f84828501613dc1565b91505092915050565b60006020828403121561404a57600080fd5b600082013567ffffffffffffffff81111561406457600080fd5b61407084828501613e00565b91505092915050565b6000806040838503121561408c57600080fd5b600083013567ffffffffffffffff8111156140a657600080fd5b6140b285828601613e00565b92505060206140c385828601613e2a565b9150509250929050565b6000602082840312156140df57600080fd5b60006140ed84828501613e2a565b91505092915050565b6000806040838503121561410957600080fd5b600061411785828601613e2a565b925050602061412885828601613d82565b9150509250929050565b6000806040838503121561414557600080fd5b600061415385828601613e2a565b925050602061416485828601613e2a565b9150509250929050565b60008060006060848603121561418357600080fd5b600061419186828701613e2a565b93505060206141a286828701613e2a565b925050604084013567ffffffffffffffff8111156141bf57600080fd5b6141cb86828701613e00565b9150509250925092565b60006141e18383614673565b905092915050565b6141f281614f80565b82525050565b61420181614f80565b82525050565b600061421282614e48565b61421c8185614e76565b93508360208202850161422e85614e38565b8060005b8581101561426a578484038952815161424b85826141d5565b945061425683614e69565b925060208a01995050600181019050614232565b50829750879550505050505092915050565b61428581614fa4565b82525050565b61429481614fa4565b82525050565b6142a381614fb0565b82525050565b6142b281614fb0565b82525050565b60006142c382614e53565b6142cd8185614e87565b93506142dd81856020860161501f565b6142e6816151f5565b840191505092915050565b60006142fc82614e5e565b6143068185614e98565b935061431681856020860161501f565b61431f816151f5565b840191505092915050565b600061433582614e5e565b61433f8185614ea9565b935061434f81856020860161501f565b614358816151f5565b840191505092915050565b600061436e82614e5e565b6143788185614eba565b935061438881856020860161501f565b80840191505092915050565b60006143a1601483614ea9565b91506143ac82615206565b602082019050919050565b60006143c4603283614ea9565b91506143cf8261522f565b604082019050919050565b60006143e7601883614ea9565b91506143f28261527e565b602082019050919050565b600061440a601a83614ea9565b9150614415826152a7565b602082019050919050565b600061442d601c83614ea9565b9150614438826152d0565b602082019050919050565b6000614450602483614ea9565b915061445b826152f9565b604082019050919050565b6000614473601983614ea9565b915061447e82615348565b602082019050919050565b6000614496602c83614ea9565b91506144a182615371565b604082019050919050565b60006144b9603883614ea9565b91506144c4826153c0565b604082019050919050565b60006144dc602a83614ea9565b91506144e78261540f565b604082019050919050565b60006144ff602983614ea9565b915061450a8261545e565b604082019050919050565b6000614522602083614ea9565b915061452d826154ad565b602082019050919050565b6000614545602c83614ea9565b9150614550826154d6565b604082019050919050565b6000614568600f83614ea9565b915061457382615525565b602082019050919050565b600061458b602983614ea9565b91506145968261554e565b604082019050919050565b60006145ae601183614ea9565b91506145b98261559d565b602082019050919050565b60006145d1600a83614ea9565b91506145dc826155c6565b602082019050919050565b60006145f4602f83614ea9565b91506145ff826155ef565b604082019050919050565b6000614617602183614ea9565b91506146228261563e565b604082019050919050565b600061463a601783614ea9565b91506146458261568d565b602082019050919050565b600061465d603183614ea9565b9150614668826156b6565b604082019050919050565b600061016083016000830151848203600086015261469182826142f1565b91505060208301516146a6602086018261485f565b5060408301516146b9604086018261485f565b5060608301516146cc606086018261429a565b5060808301516146df608086018261485f565b5060a08301516146f260a086018261485f565b5060c083015161470560c08601826141e9565b5060e083015161471860e08601826141e9565b5061010083015161472d61010086018261485f565b5061012083015184820361012086015261474782826142f1565b91505061014083015161475e61014086018261427c565b508091505092915050565b600061016083016000830151848203600086015261478782826142f1565b915050602083015161479c602086018261485f565b5060408301516147af604086018261485f565b5060608301516147c2606086018261429a565b5060808301516147d5608086018261485f565b5060a08301516147e860a086018261485f565b5060c08301516147fb60c08601826141e9565b5060e083015161480e60e08601826141e9565b5061010083015161482361010086018261485f565b5061012083015184820361012086015261483d82826142f1565b91505061014083015161485461014086018261427c565b508091505092915050565b61486881615006565b82525050565b61487781615006565b82525050565b61488e61488982615006565b6150fe565b82525050565b60006148a08285614363565b91506148ac8284614363565b91508190509392505050565b60006148c48285614363565b91506148d0828461487d565b6020820191508190509392505050565b60006020820190506148f560008301846141f8565b92915050565b600060608201905061491060008301866141f8565b61491d60208301856141f8565b61492a604083018461486e565b949350505050565b600060808201905061494760008301876141f8565b61495460208301866141f8565b614961604083018561486e565b818103606083015261497381846142b8565b905095945050505050565b600060208201905081810360008301526149988184614207565b905092915050565b60006020820190506149b5600083018461428b565b92915050565b600060208201905081810360008301526149d5818461432a565b905092915050565b60006101608201905081810360008301526149f8818e61432a565b9050614a07602083018d61486e565b614a14604083018c61486e565b614a21606083018b6142a9565b614a2e608083018a61486e565b614a3b60a083018961486e565b614a4860c08301886141f8565b614a5560e08301876141f8565b614a6361010083018661486e565b818103610120830152614a76818561432a565b9050614a8661014083018461428b565b9c9b505050505050505050505050565b60006020820190508181036000830152614aaf81614394565b9050919050565b60006020820190508181036000830152614acf816143b7565b9050919050565b60006020820190508181036000830152614aef816143da565b9050919050565b60006020820190508181036000830152614b0f816143fd565b9050919050565b60006020820190508181036000830152614b2f81614420565b9050919050565b60006020820190508181036000830152614b4f81614443565b9050919050565b60006020820190508181036000830152614b6f81614466565b9050919050565b60006020820190508181036000830152614b8f81614489565b9050919050565b60006020820190508181036000830152614baf816144ac565b9050919050565b60006020820190508181036000830152614bcf816144cf565b9050919050565b60006020820190508181036000830152614bef816144f2565b9050919050565b60006020820190508181036000830152614c0f81614515565b9050919050565b60006020820190508181036000830152614c2f81614538565b9050919050565b60006020820190508181036000830152614c4f8161455b565b9050919050565b60006020820190508181036000830152614c6f8161457e565b9050919050565b60006020820190508181036000830152614c8f816145a1565b9050919050565b60006020820190508181036000830152614caf816145c4565b9050919050565b60006020820190508181036000830152614ccf816145e7565b9050919050565b60006020820190508181036000830152614cef8161460a565b9050919050565b60006020820190508181036000830152614d0f8161462d565b9050919050565b60006020820190508181036000830152614d2f81614650565b9050919050565b60006020820190508181036000830152614d508184614769565b905092915050565b6000602082019050614d6d600083018461486e565b92915050565b6000606082019050614d88600083018661486e565b8181036020830152614d9a818561432a565b9050614da9604083018461486e565b949350505050565b6000614dbb614dcc565b9050614dc78282615084565b919050565b6000604051905090565b600067ffffffffffffffff821115614df157614df06151c6565b5b614dfa826151f5565b9050602081019050919050565b600067ffffffffffffffff821115614e2257614e216151c6565b5b614e2b826151f5565b9050602081019050919050565b6000819050602082019050919050565b600081519050919050565b600081519050919050565b600081519050919050565b6000602082019050919050565b600082825260208201905092915050565b600082825260208201905092915050565b600082825260208201905092915050565b600082825260208201905092915050565b600081905092915050565b6000614ed082615006565b9150614edb83615006565b9250827fffffffffffffffffffffffffffffffffffffffffffffffffffffffffffffffff03821115614f1057614f0f615139565b5b828201905092915050565b6000614f2682615006565b9150614f3183615006565b925082614f4157614f40615168565b5b828204905092915050565b6000614f5782615006565b9150614f6283615006565b925082821015614f7557614f74615139565b5b828203905092915050565b6000614f8b82614fe6565b9050919050565b6000614f9d82614fe6565b9050919050565b60008115159050919050565b6000819050919050565b60007fffffffff0000000000000000000000000000000000000000000000000000000082169050919050565b600073ffffffffffffffffffffffffffffffffffffffff82169050919050565b6000819050919050565b82818337600083830152505050565b60005b8381101561503d578082015181840152602081019050615022565b8381111561504c576000848401525b50505050565b6000600282049050600182168061506a57607f821691505b6020821081141561507e5761507d615197565b5b50919050565b61508d826151f5565b810181811067ffffffffffffffff821117156150ac576150ab6151c6565b5b80604052505050565b60006150c082615006565b91507fffffffffffffffffffffffffffffffffffffffffffffffffffffffffffffffff8214156150f3576150f2615139565b5b600182019050919050565b6000819050919050565b600061511382615006565b915061511e83615006565b92508261512e5761512d615168565b5b828206905092915050565b7f4e487b7100000000000000000000000000000000000000000000000000000000600052601160045260246000fd5b7f4e487b7100000000000000000000000000000000000000000000000000000000600052601260045260246000fd5b7f4e487b7100000000000000000000000000000000000000000000000000000000600052602260045260246000fd5b7f4e487b7100000000000000000000000000000000000000000000000000000000600052604160045260246000fd5b6000601f19601f8301169050919050565b7f4f6e6c79206f776e657220776964746864726177000000000000000000000000600082015250565b7f4552433732313a207472616e7366657220746f206e6f6e20455243373231526560008201527f63656976657220696d706c656d656e7465720000000000000000000000000000602082015250565b7f4163636f756e74206e6f7420656e6f7567682065746865720000000000000000600082015250565b7f5468697320746f6b656e206973206e6f7420666f722073616c65000000000000600082015250565b7f4552433732313a20746f6b656e20616c7265616479206d696e74656400000000600082015250565b7f4552433732313a207472616e7366657220746f20746865207a65726f2061646460008201527f7265737300000000000000000000000000000000000000000000000000000000602082015250565b7f4552433732313a20617070726f766520746f2063616c6c657200000000000000600082015250565b7f4552433732313a206f70657261746f7220717565727920666f72206e6f6e657860008201527f697374656e7420746f6b656e0000000000000000000000000000000000000000602082015250565b7f4552433732313a20617070726f76652063616c6c6572206973206e6f74206f7760008201527f6e6572206e6f7220617070726f76656420666f7220616c6c0000000000000000602082015250565b7f4552433732313a2062616c616e636520717565727920666f7220746865207a6560008201527f726f206164647265737300000000000000000000000000000000000000000000602082015250565b7f4552433732313a206f776e657220717565727920666f72206e6f6e657869737460008201527f656e7420746f6b656e0000000000000000000000000000000000000000000000602082015250565b7f4552433732313a206d696e7420746f20746865207a65726f2061646472657373600082015250565b7f4552433732313a20617070726f76656420717565727920666f72206e6f6e657860008201527f697374656e7420746f6b656e0000000000000000000000000000000000000000602082015250565b7f496e636f72726563742076616c75650000000000000000000000000000000000600082015250565b7f4552433732313a207472616e73666572206f6620746f6b656e2074686174206960008201527f73206e6f74206f776e0000000000000000000000000000000000000000000000602082015250565b7f496e736666696369656e742066756e6473000000000000000000000000000000600082015250565b7f5072696365207a65726f00000000000000000000000000000000000000000000600082015250565b7f4552433732314d657461646174613a2055524920717565727920666f72206e6f60008201527f6e6578697374656e7420746f6b656e0000000000000000000000000000000000602082015250565b7f4552433732313a20617070726f76616c20746f2063757272656e74206f776e6560008201527f7200000000000000000000000000000000000000000000000000000000000000602082015250565b7f4e6f74206f776e6572206f66207468697320746f6b656e000000000000000000600082015250565b7f4552433732313a207472616e736665722063616c6c6572206973206e6f74206f60008201527f776e6572206e6f7220617070726f766564000000000000000000000000000000602082015250565b61570e81614f80565b811461571957600080fd5b50565b61572581614f92565b811461573057600080fd5b50565b61573c81614fa4565b811461574757600080fd5b50565b61575381614fba565b811461575e57600080fd5b50565b61576a81615006565b811461577557600080fd5b5056fea264697066735822122028601f00865bba4b17f2c4c2e50ee3e787de338141e21cd50d854e56f887cfe664736f6c63430008040033",
  "immutableReferences": {},
  "source": "pragma solidity ^0.8.4;\r\n\r\nimport \"@openzeppelin/contracts/token/ERC20/ERC20.sol\";\r\nimport \"@openzeppelin/contracts/token/ERC721/ERC721.sol\";\r\n\r\nimport \"./Safemath.sol\";\r\n\r\ncontract ZombieFactory is ERC721 {\r\n    using SafeMath for uint256;\r\n    using SafeMath32 for uint32;\r\n    using SafeMath16 for uint16;\r\n    event NftBought(address _seller, address _buyer, uint256 _price);\r\n    event NewZombie(uint256 zombieId, string name, uint256 dna);\r\n\r\n    mapping(uint256 => uint256) public tokenIdToPrice;\r\n    mapping(uint256 => address) public zombieToOwner;\r\n    mapping(address => uint256) public ownerZombieCount;\r\n    mapping(uint256 => address) zombieApprovals;\r\n\r\n    address public owner;\r\n    uint256 public balance;\r\n    uint256 public dnaDigits = 16;\r\n    uint256 public dnaModulus = 10**dnaDigits;\r\n    uint256 public cooldownTime = 1 days;\r\n    uint256 public currentIndex;\r\n\r\n    struct Zombie {\r\n        string name;\r\n        uint256 dna;\r\n        uint256 index;\r\n        bytes32 hash;\r\n        uint256 createdAt;\r\n        uint256 updatedAt;\r\n        address ownerCreate;\r\n        address owner;\r\n        uint256 price;\r\n        string typeCoin;\r\n        bool listing;\r\n    }\r\n\r\n    Zombie[] public zombies;\r\n\r\n    constructor() ERC721(\"StechNFT\", \"STECH\") {\r\n      owner = msg.sender;\r\n    }\r\n\r\n    function widthdraw(uint256 amount, address payable payee) public {\r\n        require(msg.sender == owner, \"Only owner widthdraw\");\r\n        require(amount <= balance, \"Insfficient funds\");\r\n        payee.transfer(amount);\r\n        balance -= amount;\r\n    }\r\n    function allowBuy(uint256 _tokenId, uint256 _price) public {\r\n        require(msg.sender == ownerOf(_tokenId), 'Not owner of this token');\r\n        require(_price > 0, 'Price zero');\r\n        tokenIdToPrice[_tokenId] = _price;\r\n    }\r\n     function disallowBuy(uint256 _tokenId) public {\r\n        require(msg.sender == ownerOf(_tokenId), \"Not owner of this token\");\r\n        tokenIdToPrice[_tokenId] = 0;\r\n        zombies[_tokenId].price = 0;\r\n    }\r\n\r\n    function listing(uint256 _tokenId,uint256 _newPrice, string memory _newTypeCoin) public {\r\n      require (zombieToOwner[_tokenId] == msg.sender || zombieApprovals[_tokenId] == msg.sender);\r\n        allowBuy(_tokenId,_newPrice);\r\n        zombies[_tokenId].updatedAt = block.timestamp;\r\n        zombies[_tokenId].price = _newPrice;\r\n        zombies[_tokenId].typeCoin = _newTypeCoin;\r\n        zombies[_tokenId].listing = true;\r\n    }\r\n\r\n\r\n     function unListing(uint256 _tokenId) public {\r\n        disallowBuy(_tokenId);\r\n        zombies[_tokenId].updatedAt = block.timestamp;\r\n        zombies[_tokenId].listing = false;\r\n    }\r\n\r\n   \r\n\r\n    function buy(uint256 _tokenId) external payable {\r\n        uint256 price = tokenIdToPrice[_tokenId];\r\n        require(price > 0, \"This token is not for sale\");\r\n        require(msg.value == price , \"Incorrect value\");\r\n        address seller = ownerOf(_tokenId);\r\n\r\n        _transfer(seller, msg.sender, _tokenId);\r\n        zombies[_tokenId].updatedAt = block.timestamp;\r\n        zombies[_tokenId].owner = msg.sender;\r\n        zombies[_tokenId].listing = false;\r\n\r\n        ownerZombieCount[msg.sender] = ownerZombieCount[msg.sender].add(1);\r\n        ownerZombieCount[seller] = ownerZombieCount[seller].sub(1);\r\n        zombieToOwner[_tokenId] = msg.sender;\r\n\r\n        tokenIdToPrice[_tokenId] = 0; // not for sale anymore\r\n        payable(seller).transfer(msg.value); // send the ETH to the seller\r\n        emit NftBought(seller, msg.sender, msg.value);\r\n    }\r\n\r\n    function getAllNFTListing() public view returns (Zombie[] memory) {\r\n        Zombie[] memory result = new Zombie[](currentIndex);\r\n        for (uint256 i = 0; i < zombies.length; i++) {\r\n            result[i] = zombies[i];\r\n        }\r\n        return result;\r\n    }\r\n\r\n\r\n    function _generateRandomDna(string memory _str)\r\n        public\r\n        view\r\n        returns (uint256)\r\n    {\r\n        uint256 rand = uint256(keccak256(abi.encodePacked(_str, currentIndex)));\r\n        return rand % dnaModulus;\r\n    }\r\n\r\n    function createRandomZombie(string memory _name) external payable {\r\n        require(msg.value == 0.1 ether, \"Account not enough ether\");\r\n        uint256 randDna = _generateRandomDna(_name);\r\n        randDna = randDna - (randDna % 100);\r\n        payable(owner).transfer(msg.value); \r\n        zombies.push(\r\n            Zombie(\r\n                 _name,\r\n                 randDna,\r\n                 currentIndex,\r\n                 keccak256(abi.encodePacked(_name,currentIndex)),\r\n                 block.timestamp,\r\n                 block.timestamp,\r\n                 msg.sender,\r\n                 msg.sender,\r\n                 0,\r\n                 \"ETH\",\r\n                 false\r\n            )\r\n        );\r\n        zombieToOwner[currentIndex] = msg.sender;\r\n        _mint(msg.sender, currentIndex);\r\n        ownerZombieCount[msg.sender] = ownerZombieCount[msg.sender].add(1);\r\n        currentIndex++;\r\n        emit NewZombie(currentIndex, _name, randDna);\r\n    }\r\n\r\n    function createZombieByCoin(string memory _name, uint256 _dna) external payable {\r\n        require(msg.value == 0.1 ether, \"Account not enough ether\");\r\n        payable(owner).transfer(msg.value); \r\n        zombies.push(\r\n            Zombie(\r\n                 _name,\r\n                  _dna,\r\n                 currentIndex,\r\n                 keccak256(abi.encodePacked(_name,currentIndex)),\r\n                 block.timestamp,\r\n                 block.timestamp,\r\n                 msg.sender,\r\n                 msg.sender,\r\n                 0,\r\n                 \"ETH\",\r\n                 false\r\n            )\r\n        );\r\n        zombieToOwner[currentIndex] = msg.sender;\r\n        _mint(msg.sender, currentIndex);\r\n        ownerZombieCount[msg.sender] = ownerZombieCount[msg.sender].add(1);\r\n        currentIndex++;\r\n        emit NewZombie(currentIndex, _name,  _dna);\r\n    }\r\n\r\n    function getZombiesByOwner(address _owner)\r\n        public\r\n        view\r\n        returns (Zombie[] memory)\r\n    {\r\n        \r\n\r\n        Zombie[] memory result = new Zombie[](ownerZombieCount[_owner]);\r\n        uint256 counter = 0;\r\n        for (uint256 i = 0; i < zombies.length; i++) {\r\n            if (zombieToOwner[i] == _owner) {\r\n                result[counter] = zombies[i];\r\n                counter++;\r\n            }\r\n        }\r\n        return result;\r\n    }\r\n\r\n    function getZombieById(uint256 _index)\r\n        public\r\n        view\r\n        returns (Zombie memory)\r\n    {\r\n        Zombie memory result = zombies[_index];\r\n        return result;\r\n    }\r\n}",
  "sourcePath": "C:\\Users\\HP\\Desktop\\Portal NFT\\NFT\\contracts\\ZombieFactory.sol",
  "compiler": {
    "name": "solc",
    "version": "0.8.4+commit.c7e474f2.Emscripten.clang"
  },
  "schemaVersion": "3.4.4",
  "updatedAt": "2022-01-18T12:28:40.750Z",
  "networkType": "ethereum",
  "devdoc": {
    "kind": "dev",
    "methods": {
      "approve(address,uint256)": {
        "details": "See {IERC721-approve}."
      },
      "balanceOf(address)": {
        "details": "See {IERC721-balanceOf}."
      },
      "getApproved(uint256)": {
        "details": "See {IERC721-getApproved}."
      },
      "isApprovedForAll(address,address)": {
        "details": "See {IERC721-isApprovedForAll}."
      },
      "name()": {
        "details": "See {IERC721Metadata-name}."
      },
      "ownerOf(uint256)": {
        "details": "See {IERC721-ownerOf}."
      },
      "safeTransferFrom(address,address,uint256)": {
        "details": "See {IERC721-safeTransferFrom}."
      },
      "safeTransferFrom(address,address,uint256,bytes)": {
        "details": "See {IERC721-safeTransferFrom}."
      },
      "setApprovalForAll(address,bool)": {
        "details": "See {IERC721-setApprovalForAll}."
      },
      "supportsInterface(bytes4)": {
        "details": "See {IERC165-supportsInterface}."
      },
      "symbol()": {
        "details": "See {IERC721Metadata-symbol}."
      },
      "tokenURI(uint256)": {
        "details": "See {IERC721Metadata-tokenURI}."
      },
      "transferFrom(address,address,uint256)": {
        "details": "See {IERC721-transferFrom}."
      }
    },
    "version": 1
  },
  "userdoc": {
    "kind": "user",
    "methods": {},
    "version": 1
  }
}